:02000002B0004C
:1040000000400B00ECAF0B00000006000C000502A6
:084010000401E50C00000000B2
:04401800CCA30B002A
:10401C0009480A49884208B505D0094A824202D0AB
:10402C00121A06F069F80748074A0021121A06F01E
:10403C0071F8014808BD00BF7CDF032018AF0B00EE
:10404C0028E0032028E00320EDE7032070B5074E9D
:10405C00074C04F077FBA41BA4080025AC4200D14C
:10406C0070BD56F8043B98470135F7E7CCAE0B0012
:10407C00F0AE0B0000F042BF08B500F03BFDBDE810
:10408C00084004F017BB03F027BF03F025BF03F073
:10409C002BBF0078B0FA80F0400970470123037001
:1040AC007047704710B510210446FFF7F0FF20460B
:1040BC0010BD000010B503682F2B044604D9074A25
:1040CC0007490A2003F05CFE23681F2B83BF03F013
:1040DC001F03044823604FF0A04010BD6D7A0B0005
:1040EC00E0A30B00000300500EB403B503AB00219A
:1040FC0053F8042B019304F02EFA02B05DF804EB94
:10410C0003B0704773B5044608462279A36832B1F0
:10411C00A3B90B4902B0BDE8704004F0E1B9094AFB
:10412C00267B094D0949647B012E18BF2946CDE930
:10413C0000140749FFF7D8FF02B070BD054AEFE73E
:10414C0015A40B0076A40B0011A40B000DA40B00FE
:10415C002BA40B0004A40B0008B503F091FC034B3B
:10416C001860BDE8084003F0A7BE00BF40E703207D
:10417C00F7B5324D324C2B78BFF35B8F060171B320
:10418C00D80709D42846FFF784FF28B103F0F0FBC9
:10419C0020602846FFF782FF23689B5D5F012B7828
:1041AC00BFF35B8FD90709D42448FFF772FF28B1FE
:1041BC0003F0DEFB20602148FFF770FF2068064407
:1041CC0001A8737803F01F033B430193FFF772FFC1
:1041DC00019A01239340C0F8083503B0F0BDDA070B
:1041EC0009D42846FFF755FF28B103F0C1FB206026
:1041FC002846FFF753FF23689B5D5F012B78BFF3C5
:10420C005B8FDB0709D40D48FFF743FF28B103F0A0
:10421C00AFFB20600948FFF741FF2068064401A866
:10422C00737803F01F033B430193FFF743FF019A9D
:10423C0001239340C0F80C35CFE700BF34E00320D6
:10424C0038E00320F7B5214E214D3378BFF35B8F57
:10425C0013F0010F09D13046FFF71BFF28B103F013
:10426C0087FB28603046FFF719FF2B6893F87040E6
:10427C003378BFF35B8FDB074FEA441709D413483D
:10428C00FFF707FF28B103F073FB28600F48FFF717
:10429C0005FF2B6893F8714004F01F043C4301A800
:1042AC000194FFF707FFD0F81035019401A8FFF730
:1042BC0001FF019BD0F81015D940C94301F0010151
:1042CC000720FFF755FF03B0F0BD00BF34E003201B
:1042DC0038E0032003682BB14268934202D218469F
:1042EC0005F0F2BE0020704738B50568044645B1AC
:1042FC0043689D4205D2284605F054FF0130054421
:10430C002560204638BDF8B5044647680D4621B9EE
:10431C0003687A1C4260D955F8BD084605F042FF87
:10432C00A368461CF2199A42F6D8206832462946F0
:10433C00384405F0E1FE606830446060ECE7000052
:10434C0038B504460B46D0E901012568044A091A20
:10435C00284403F0D9FD636801300344636038BD21
:10436C0048A40B0038B504460B46D0E9010125687A
:10437C00044A091A284403F0C7FD6368013003445A
:10438C00636038BD4BA40B0038B50A4D03F078FBC5
:10439C002B6803F5FA6383420BD8074C0748217846
:1043AC0001F04AFC237883F00103237003F068FBCF
:1043BC00286038BDA4E6032034E6032038E6032049
:1043CC0010B50E4C2368BBB9052211460C4801F000
:1043DC00B9FA0B48002101F02FFC0A4B08480122C6
:1043EC001A702368084A1B01D15801F02FFC03F006
:1043FC0047FB064B186010BD0022E6E78CE5032056
:10440C0038E6032034E6032094E50320A0E60320DD
:10441C0010B5074C03F034FB236803F5FA638342B1
:10442C0004D8FFF7CDFF03F02BFB206010BD00BFBD
:10443C00A4E6032038B50A4D0C4603F021FB2B688B
:10444C0003F5FA6383420AD8206805F03DFE054B5C
:10445C0001381860FFF7B4FF03F012FB286038BD79
:10446C00A4E603208CE5032008B5002343770068FD
:10447C0004F026FEBDE8084002F040BF2DE9F043F1
:10448C008F188FB0B942CDE905170646894690467C
:10449C0080F0C28005A80D88FFF726FF0368BB4299
:1044AC0080F0BA8005980378412B49D1013005F092
:1044BC000BFE052837DDFF2447F276239D4200F0E2
:1044CC00D38041D847F261239D4200F0A88047F287
:1044DC0064239D426BD046F670539D4241D1784D7A
:1044EC00784EDFF8F4810598B84280F09580037817
:1044FC00412B4BD1013005F0E7FD052839DDFF24B8
:10450C0005A8FFF7F1FEDDF814902946484605F0A2
:10451C0037FE014600283DD1204604F05DFF05A87A
:10452C00FFF7E2FEDFE70598013005F0CDFD00282E
:10453C00C1DB0598013005F0C7FD0E30C4B2BBE7F6
:10454C0005A8FFF7C7FEF9E747F264739D424FD009
:10455C0047F276739D4200F0978047F261739D425B
:10456C006FD00023CDE9013302220092728B1946E1
:10457C003AE00598013005F0A7FD0028BFDB05984F
:10458C00013005F0A1FD0E30C4B2B9E705A8FFF764
:10459C00A1FEF9E73146484605F0F2FD28B1414647
:1045AC00484605F0EDFD0028B9D10121B4E70AAB6E
:1045BC004549079307A810230025CDE90853FFF7B9
:1045CC00A2FE07A82146FFF7BBFE204604F02EFFF3
:1045DC00014607A8FFF7C6FE089BCDE90155013B34
:1045EC000093079B2A461421304600F0C7FB13E0CA
:1045FC0005A8FFF779FE03689F420DD9A4B20121EB
:10460C00204604F0E9FE05A8FFF764FE011E18BF62
:10461C000121204604F0F1FE0FB0BDE8F0830AAB97
:10462C00079307A8102329490025CDE90853FFF764
:10463C006AFE07A82146FFF783FE204604F009FF17
:10464C00C6E705A8FFF750FE03689F42E4D9A4B261
:10465C000121204604F0C0FE05A8FFF73BFE0146F1
:10466C00204604F00DFFD7E720468DF8284002F0D5
:10467C0047FE03460AA823B1154A934201D0984736
:10468C00CAE702F039FEC7E705A8FFF72DFE059B28
:10469C008DF81C40A3EB0901A8EB01012046CDE9E4
:1046AC000A310C9102F036FE03460AA907A823B181
:1046BC00084A934201D09847AEE702F01EFEABE7E2
:1046CC004FA40B0052A40B005AA40B005DA40B00CA
:1046DC0005730B0007730B0056A40B002DE9F0417A
:1046EC008CB004AF044605220068391D03F079FF35
:1046FC0098B3052804D000202037BD46BDE8F081D2
:10470C00B7F805305BBA9AB2A7F80530B7F807309E
:10471C005BBA1FFA83F8A7F80730002AEBD03B7975
:10472C0023BB02F0E7FD0246E060607FB7F807307C
:10473C00C0B9B7F80510012914D1092B0FD0C82B1B
:10474C0001D0042BD8D1012562612046657700F099
:10475C00C3FBFFF701FD02F0D1FD0120CCE70323E1
:10476C006377C9E7581F18BF0120C5E7B8F5806FFC
:10477C0003D92046FFF778FEEFE708F108036E46F1
:10478C00DB08A6EBC3039D4604AD206842462946D0
:10479C0003F027FF80454FF000007FD1B7F80730BA
:1047AC00E85402F0A7FD3B79E060142B00F0A680E2
:1047BC0048D80F2B00F0A28007D8022B48D0062B2C
:1047CC0051D02046FFF750FE58E0112BF9D10023B1
:1047DC003B70B7F807302B449D42C7E903534DD2C9
:1047EC0007F10C00D5F80080FFF77EFDFB68B7F8E9
:1047FC0007105D1B4D1BC7E905357B68FD61C3F3D5
:10480C000F236383644B984500F0BF8000F28C80CB
:10481C00A3F57F236FF400721344984500F09D803C
:10482C0079D8A3F50033063B984500F09C8003F53E
:10483C000033033398456BD107F11401384602F06D
:10484C005CFD65E0292B1BD0372B17D01D2BB8D165
:10485C00637F43B901236377204600F03DFBFFF7EC
:10486C007BFC02F04BFD0023C821B7F8052000911A
:10487C00CDE901331946204600F080FA01200DE005
:10488C00A3681BB9402003F027FBA060B7F8078092
:10489C00A8444545C7E9055802D30020B5462BE787
:1048AC0029464022A06805F085FCA368002583F802
:1048BC003F5007F11400FFF717FD036898451BD90B
:1048CC00786920B1BB69984214D205F001FC85B21D
:1048DC00206804F0F5FB2368A2685A631D87002347
:1048EC00637702F007FDA0F59C500838C4E903007B
:1048FC006061C3E72846EAE75025E9E77B68B7F82B
:10490C000720C3F30F23638329462046FFF7B6FD28
:10491C0000236383B2E7214B9845F9D107F11401C9
:10492C00384602F0EAFCF3E71D4B984521D003F121
:10493C009F6303F5003303F5807398451FD003F193
:10494C006E4303F5302303F586739845E0D107F1E8
:10495C001401384602F0D1FCDAE707F114013846AD
:10496C0002F0CBFCD4E707F11401384602F0C5FC89
:10497C00CEE707F11401384602F0BFFCC8E707F197
:10498C001401384602F0B9FCC2E707F114013846AD
:10499C0002F0B3FCBCE700BF76667300646267008C
:1049AC0061636F6E2DE9F04104468CB00D46FFF744
:1049BC00D3FB637F022B1ED0237F628B0133DBB2D0
:1049CC002377AAB9022B13D8206804F041FAA8B1B6
:1049DC0025B9206804F01AFB00280FDD2046FFF7EC
:1049EC007DFE0028F5D1206804F06AFB02F086FCFD
:1049FC00237F013B23770CB0BDE8F08102F07AFCF9
:104A0C000546206804F024FA677F012F064624D15E
:104A1C0020B965612046FFF727FDE9E7E3684FF20F
:104A2C001862EB1A9342F5D84AF6C872934203D82F
:104A3C002369EB1A9342DBD9636941F27072EB1A6A
:104A4C009342D5D90023CDE9013300931A460621B0
:104A5C00204600F093F96561CAE7002FC8D163695D
:104A6C00EB1A40B141F270729342C1D9206804F044
:104A7C0027FB6777BCE741F288329342B8D92068AC
:104A8C0004F01EFBD4F800C0DCF834E0BCF838802D
:104A9C00BEF1000F1BD0334642467146604604F00F
:104AAC0059F90128D7D16368059301251846258348
:104ABC0005F078FB0022CDE90122059B00902A46E7
:104ACC001D21204600F05AF92369636190E7084BD9
:104ADC0006930CF120070FCF07AE0FC63B6833705F
:104AEC004246734606A9604604F014FAD9E700BFA3
:104AFC00B4AA0B002DE9F0438A4E8B4899B00021E3
:104B0C00FFF750FF02F0BCFF336803F5AF7383422D
:104B1C0050D8864D8648874C02F040FE00222978FA
:104B2C00834802F045FE844B2168684603EB011173
:104B3C0003F0FFFB814904A803F0BBFB8048029FF4
:104B4C0000F03EFC002849D07E497F4803F004FC6D
:104B5C007C49684603F000FC2B687C4C002B2268D7
:104B6C0040F3C9801032D31A6946002214A803F00E
:104B7C0065FC14A904A803F0E7FB14A803F04EFB92
:104B8C002B68013B2B600499694803F0A9FC0122B6
:104B9C006748002102F00CFE6B4B6548196803F066
:104BAC009FFC02F06DFF306004A803F037FB6846F1
:104BBC0003F034FB664C02F063FF236803F51C53CF
:104BCC001033834207D802F05BFF624A20601378EF
:104BDC0083F00103137019B0BDE8F0835D4B1B78B3
:104BEC00D3B15D4914A803F064FB5C4B21680A2225
:104BFC0053F8211010A803F0C1FB10A914A803F05E
:104C0C00FBFB0146504803F085FB10A803F006FBA4
:104C1C0014A803F003FB9FE702F032FF504BD4F8CB
:104C2C0000801B68C01A04F045FF4E4B002205F0B3
:104C3C00E5F800224C4B04F0FFFD05F0EFF907EE10
:104C4C00900A4A4B3D4953F82830FDEEE77A08A804
:104C5C0017EE904A1C1B03F02CFB3C204FF00A096A
:104C6C00B4FBF0F800FB1844B4FBF9F004F032FF8D
:104C7C003D4B002204F0E0FD05F0A8F938B93C49A1
:104C8C0008A803F069FB08A803F0C8FA64E73949DF
:104C9C0010A803F00EFB404604F00CFF324B002230
:104CAC0004F0CAFD05F092F94A4601460CA803F03F
:104CBC0065FB0CA910A803F09FFB2F4903F0A8FB80
:104CCC0008A903F099FB4A468046214614A803F034
:104CDC0068FB14A9404603F08FFB01461A4803F009
:104CEC0019FB14A803F09AFA0CA803F097FA10A871
:104CFC0003F094FAC7E7974210DB02F11003694600
:104D0C0014A803F09BFB14A904A803F01DFB14A822
:104D1C0003F084FA23680133236034E710232B60FB
:104D2C000023F9E798E603203CE0032098DF0320FA
:104D3C0004E603208CE503201CE5032076A40B007D
:104D4C0038E6032060A40B0024E6032090E5032042
:104D5C009CE60320B8DF032071A40B007CDF03204A
:104D6C00A0E6032000408F400000E03F9CDF0320C2
:104D7C0077A40B0079A40B0085A40B002DE9F04F50
:104D8C0083B000AF044600683D6B884616469946D2
:104D9C00EB4604F05DF800287FD0B8F11D0F04D865
:104DAC004C4B23FA08F3DB0702D4637F012B74D13D
:104DBC0046B9668B36B9238B01339BB2002B71D06D
:104DCC002383268BA8F10C03082B16D8D4E90323D4
:104DDC00934238BF134603F1420A02F08BFAAAEB56
:104DEC000000002860DB00212046FFF7DBFD02F00D
:104DFC0081FAAAEB00000028F5DAB9F1000F5AD0BD
:104E0C006B1D7A6B002ABA6B08BF002203EB020AF7
:104E1C000AF1070323F00703ADEB030DBB6BC7F8D7
:104E2C0004D0EA18C2F3072376BA43EA02238DF8BA
:104E3C000080ADF80160ADF80330B9F1000F3CD043
:104E4C00002D3AD02A4649460DF1050005F054F9DB
:104E5C00681D7B6B3BB1BB6B2BB11A467B68796BC6
:104E6C00184405F049F9002555452AD2AAEB05024C
:104E7C007B682068B2F5806F28BF4FF480625919A7
:104E8C0003F0BDFE0646002002F032FABEB92068DF
:104E9C0004F016F9667702F031FA0C37DD46BD46A0
:104EAC00BDE8F08F01238BE7217F0029A5D1204697
:104EBC00FFF778FDA1E70523A3E70520C9E73544F3
:104ECC00D2E703D02046FFF7CFFAE6E702F012FA5A
:104EDC002061E2E74500002000B595B004AB00224C
:104EEC0001934F2300930292034B1121FFF746FFCE
:104EFC0015B05DF804FB00BF9CA50B002DE9F0413B
:104F0C00002394B002225E485E4D102102F07AFC20
:104F1C0001215B4802F065FB03F03EFD4FF4165196
:104F2C0003F02EFD0121072004F056FAA223AC2237
:104F3C00A721009302A8EA2303F0B4FC03AC40F6CB
:104F4C00B83002F0D5F90FCC09AF0FC723683B700E
:104F5C004D4B6B6002F0CEF9A0F59C5008380DF16A
:104F6C00240CC5E903006861BCE80F000FAE0FC646
:104F7C002C683B6833704FF0000841F69073C4F80E
:104F8C00348023870FAF0FCF20340FC433682370C6
:104F9C0044F24F66286804F093F885F81D8002F0FF
:104FAC00A9F904466B7F012B0CD002F0A3F9001B6E
:104FBC00B04204D800212846FFF7F4FCF2E76B7FDF
:104FCC00012BE7D1314B324C0E9300238DF83C3042
:104FDC0004F58C662F4B109301250EAB022204F2C4
:104FEC006C413046ADF8445001F070FF002840D0C1
:104FFC00266004F23C4001F0D9FB2946204601F022
:10500C000FFE04F23C45014670B3214901F23C40CD
:10501C0001F003FA68B394F83C3413F0700F28D005
:10502C001D4B1D6003F0B8FC1C4903F06CFA1C48C6
:10503C0000F06DFD00B300221948114600F082FC0F
:10504C001748052100F0ECF938B10121072004F0D4
:10505C00D4F91449124800F087F91148012114B011
:10506C00BDE8F04100F0E8BD204601F0D9FD002874
:10507C00CBD102F00DFDFCE702F00AFDFCE700BF0E
:10508C0004E603203CE0032087A40B0088A50B005A
:10509C005CE0032080F0FA02B8E60320A8A40B0021
:1050AC0038E6032051420B0030B54D4C4D4D0021DC
:1050BC0085B0012002F084FE204604F04BF804F188
:1050CC001C0003F0ABFB484A0023C2E900436363B6
:1050DC002387464C9361C2E90233C2E904339383BC
:1050EC006422C4F86024424AC4F87024012263602C
:1050FC00C4F83C34C4F8683484F87424C4F87834A4
:10510C00A4F87C342978BFF35B8F11400BD128466F
:10511C000391FEF7BEFF039928B1364802F060FFF9
:10512C002846FEF7BBFF334BC4F86C3400213248E1
:10513C0002F018FA02F0A4FC304B186002F0A0FC4C
:10514C002F4B186002F09CFC2E4B2F4918602F48F7
:10515C0003F0AFF82E492F4803F0ABF82E492F4837
:10516C0003F0A7F82E492F4803F0A3F82E492F4837
:10517C0003F09FF82E492F4803F09BF82E492F4837
:10518C0003F097F82E492F4803F093F82E492F4837
:10519C0003F08FF82E492F4803F08BF82E492F4837
:1051AC0003F087F82E492F4803F083F82E492F4837
:1051BC0003F07FF82E492F4803F07BF82E492F4837
:1051CC0003F077F804230222CDE900324FF0FF31CF
:1051DC00052303222A4800F0CDF805B030BD00BFEE
:1051EC00E0E4032028E003203CE003205CE0032003
:1051FC0088A50B002CE0032004E60320A4E6032082
:10520C0098E603209CE60320AFA40B0024E60320C1
:10521C00BAA40B0094E50320C0A40B00A4E5032062
:10522C00C6A40B00B4E50320CCA40B00C4E50320FA
:10523C00D2A40B00D4E50320D8A40B00E4E5032092
:10524C00DEA40B00F4E50320E4A40B001CE5032012
:10525C00FCA40B002CE5032010A50B003CE503205F
:10526C0027A50B004CE503203AA50B005CE50320B9
:10527C004EA50B006CE5032066A50B007CE5032016
:10528C0038E60320037C13F008031EBFC36A406A90
:10529C001B1A002BACBF18466FF0004070477047CC
:1052AC00103001F04DBA103001F06BB9103001F034
:1052BC00D1BA10B534210446FEF7E9FE204610BDE4
:1052CC0010B503682F2B044604D9074A07490A2056
:1052DC0002F056FD23681F2B83BF03F01F03044805
:1052EC0023604FF0A04010BD6D7A0B00E0A30B00C3
:1052FC000003005007B5019001A8FFF7E1FF019AE8
:10530C0001239340C0F8083503B05DF804FB07B5E2
:10531C00019001A8FFF7D4FF019A01239340C0F834
:10532C000C3503B05DF804FB07B501228DF80710AE
:10533C0010300DF1070101F08DFA03B05DF804FB9C
:10534C0007B501220DF1070101F06DF801280CBF22
:10535C009DF807004FF0FF3003B05DF804FB08B573
:10536C001030FFF7EDFF08BD09B1014B1960704714
:10537C00ACE6032030B580F827309DF90C3080F86E
:10538C002620FF2580F821304FF47A72002380F814
:10539C00225080F8235080F8245003870125C362E3
:1053AC00026380F85C30054A9DF9103080F820507B
:1053BC0080F82510826280F85D3030BDF8A50B00B6
:1053CC0090F85C302BB990F83800003818BF0120E9
:1053DC0070470020704708B590F8210004F026F8BB
:1053EC00003818BF012008BD13B50B4C2178BFF352
:1053FC005B8F11F001010BD120460191FEF749FEA4
:10540C00019928B1054802F0EBFD2046FEF746FE57
:10541C00024802B010BD00BF28E003202CE003209E
:10542C000C4B052913B5186011D190F92140631C60
:10543C000DD0FFF7D9FF0023009307494FF0FF333E
:10544C000122A0B203F0D0FA012002B010BD00205E
:10545C00FBE700BFA8E60320255C0B002DE9F74F06
:10546C0090F8203080460F469146002B40F0D580B6
:10547C00854C864D89444F4500F0D7804FF0070A84
:10548C0098F924602378BFF35B8FDA07B6B209D49E
:10549C002046FEF7FEFD28B102F06AFA286020468D
:1054AC00FEF7FCFD2B68360113F806B02378BFF32A
:1054BC005B8FDB074FEA4B1B09D42046FEF7E9FD57
:1054CC0028B102F055FA28602046FEF7E7FD2B685C
:1054DC003344587800F01F0040EA0B00FFF717FF29
:1054EC003B7898F9226043FA0AF313F0010FB6B235
:1054FC002378BFF35B8F00F09B80D80709D420463C
:10550C00FEF7C7FD28B102F033FA28602046FEF7FB
:10551C00C5FD2B68360113F806B02378BFF35B8FFB
:10552C00D9074FEA4B1B09D42046FEF7B2FD28B130
:10553C0002F01EFA28602046FEF7B0FD2B681E44D0
:10554C00707800F01F0040EA0B00FFF7D3FE98F9CB
:10555C0024602378BFF35B8FD807B6B209D42046FA
:10556C00FEF797FD28B102F003FA28602046FEF7FB
:10557C0095FD2B68360113F806B02378BFF35B8FCB
:10558C00D9074FEA4B1B09D42046FEF782FD28B100
:10559C0002F0EEF928602046FEF780FD2B683344BC
:1055AC00587800F01F0040EA0B00FFF7A3FEBAF199
:1055BC00010ABFF465AF98F924602378BFF35B8FC1
:1055CC00DA07B6B209D42046FEF763FD28B102F023
:1055DC00CFF928602046FEF761FD2B68360113F8E1
:1055EC0006A02378BFF35B8FDB074FEA4A1A09D476
:1055FC002046FEF74EFD28B102F0BAF9286020468D
:10560C00FEF74CFD2B6833440137587800F01F002F
:10561C0040EA0A00FFF77BFE2DE7FFF7E5FE0022CC
:10562C0000924B46394602F087FD03B0BDE8F08F7F
:10563C00DA0709D42046FEF72CFD28B102F098F9C0
:10564C0028602046FEF72AFD2B68360113F806B0B9
:10565C002378BFF35B8FDB074FEA4B1B09D4204643
:10566C00FEF717FD28B102F083F928602046FEF7FB
:10567C0015FD2B683344587800F01F0040EA0B00EE
:10568C00FFF745FE63E700BF34E0032038E003205A
:10569C0000B589B00DF11F0323F01F03012219700F
:1056AC001946FFF7DBFE09B05DF804FB2DE9F74F57
:1056BC0090F8207006463FB1FFF796FE002103B02C
:1056CC00BDE8F04F02F032BD744C754D4FF0070938
:1056DC0096F923B02378BFF35B8FDB071FFA8BFBA4
:1056EC0009D42046FEF7D5FC28B102F041F9286018
:1056FC002046FEF7D3FC2B684FEA0B1B13F80B80EC
:10570C002378BFF35B8FD8074FEA481A09D4204699
:10571C00FEF7BFFC28B102F02BF928602046FEF7FB
:10572C00BDFC2B685B4401A893F8018008F01F08AE
:10573C0048EA0A08CDF80480FFF7C2FDD0F810350E
:10574C00CDF8048001A8FFF7BBFD019AD0F8103505
:10575C0096F92480D340D90742BF012303FA09F3F9
:10576C001F432378BFF35B8F48BF7FB2DA071FFA62
:10577C0088F809D42046FEF78CFC28B102F0F8F822
:10578C0028602046FEF78AFC2B684FEA081813F8AD
:10579C0008A02378BFF35B8FDB074FEA4A1A09D4C2
:1057AC002046FEF776FC28B102F0E2F8286020468D
:1057BC00FEF774FC2B684344587800F01F0040EA55
:1057CC000A00FFF797FD96F924802378BFF35B8FCF
:1057DC00D8071FFA88F809D42046FEF75AFC28B1DE
:1057EC0002F0C6F828602046FEF758FC2B684FEAFA
:1057FC00081813F808A02378BFF35B8FD9074FEA7A
:10580C004A1A09D42046FEF744FC28B102F0B0F83D
:10581C0028602046FEF742FC2B684344587800F081
:10582C001F0040EA0A00FFF772FDB9F10109BFF44D
:10583C004FAF96F924602378BFF35B8FDA07B6B2CB
:10584C0009D41648FEF725FC28B102F091F828601F
:10585C001248FEF723FC2B68360113F806802378D8
:10586C00BFF35B8FDB074FEA481809D40B48FEF7F0
:10587C0010FC28B102F07CF828600848FEF70EFCFA
:10588C002B681E44707800F01F0040EA0800FFF7F8
:10589C003EFDF8B203B0BDE8F08F00BF34E003204A
:1058AC0038E0032008B5FFF79FFDBDE8084002F083
:1058BC00B5BB07B50190FFF797FD019903B05DF8F3
:1058CC0004EB02F0C5BB00007FB590F82030044615
:1058DC000E46154663B1194B009300238DF8043026
:1058EC00174B029368460123ADF80C30FFF7E1FF2C
:1058FC0094F92600002180B203F07FFD022120469E
:10590C00FFF7C6FE31462046FFF7C2FE290A2046A5
:10591C00FFF7BEFEE9B22046FFF7BAFE94F9260067
:10592C00012180B203F069FD94F8203023B104B05A
:10593C00BDE87040FFF7B6BF04B070BD88A50B0082
:10594C0090D0030007B542EA01220190009203F0C7
:10595C0075F8009A01980B21FFF7B6FF03B05DF8BC
:10596C0004EB03F06DB808B540F604020021FFF714
:10597C00ABFFBDE80840642002F05ABE10B50446E7
:10598C0090F9250000280CDB002180B203F035FDD6
:10599C00642002F04DFE94F92500012180B203F041
:1059AC002CFD94F92600012180B203F026FD94F918
:1059BC002700012180B203F020FD642002F038FEA4
:1059CC002046FFF7D0FF642002F032FE20464FF451
:1059DC00C0420321FFF778FF282220461146BDE87C
:1059EC001040FFF7AFBF00007FB590F820300446A1
:1059FC000D4663B11B4B009300238DF804301A4BFA
:105A0C00029368460123ADF80C30FFF752FF94F96E
:105A1C002600002180B203F0F0FC03212046FFF7A2
:105A2C0037FE29462046FFF733FE0A2002F018F80D
:105A3C002046FFF73BFE000200F47F462046FFF7AE
:105A4C0035FE304385B294F92600012180B203F073
:105A5C00D4FC94F820300BB1FFF724FF284604B097
:105A6C0070BD00BF88A50B0090D0030038B504466C
:105A7C0090F92500002809DB012180B203F0ACFC71
:105A8C0094F92500002180B203F0B7FC94F92600AC
:105A9C00012180B203F0A0FC94F92600012180B210
:105AAC0003F0ABFC94F92700012180B203F094FCC5
:105ABC0094F92700012180B203F09FFC94F8210097
:105ACC00002103F089FC94F82050DDB994F92200F0
:105ADC00012180B203F080FC94F92400012180B2F2
:105AEC0003F07AFC94F92300294680B203F074FC8D
:105AFC002046FFF743FF01212046FFF775FFC0F357
:105B0C00031038BDFFF770FC02F074FAF0E710B523
:105B1C000446012190F85D0003F05EFC94F85D00F2
:105B2C00012103F06AFC2046FFF7A0FF031F584237
:105B3C00584110BD7FB590F8203004460D461646EE
:105B4C0063B1144B009300238DF80430124B029375
:105B5C0068460123ADF80C30FFF7ABFE94F9270033
:105B6C00002180B203F049FC324629462046FFF75B
:105B7C0075FC94F92700012180B203F03EFC94F8E7
:105B8C00203023B104B0BDE87040FFF78BBE04B0E9
:105B9C0070BD00BF88A50B0000127A0038B590F8D4
:105BAC005C300446F3B190F83830DBB1FFF713FCEE
:105BBC00C0B104F138052046FFF70DFC90B120224E
:105BCC002146284600F02FFC30B984F85C002846AA
:105BDC00BDE8384000F0EABDC2B221462046FFF7CE
:105BEC00A9FFE8E738BD000070B50A4C054602F085
:105BFC0025FF237803F0FF061BB1BDE8704002F0CF
:105C0C001FBF0123237002F01BFF2846FFF7C6FFBE
:105C1C00267070BDB0E6032010B5054B1868FFF771
:105C2C00E3FF044B1B6813B1BDE81040184710BDCF
:105C3C00A8E60320ACE6032019B1002280F85C2012
:105C4C007047012280F85C20FFF7CEBFF0B54FF40F
:105C5C0090428FB004460D460021FFF735FE41F609
:105C6C00296207212046FFF72FFE0022062120463D
:105C7C00FFF72AFE00274FF47A73CDE90273214B0C
:105C8C00214901932A463B4605A805AD059700F02E
:105C9C0094FD0FCD04F138060FC60FCD0FC62B683F
:105CAC003360029BE36294F83850039B2363049B9C
:105CBC0063631DB302F0C2FE3A4604212046FFF78F
:105CCC0003FE3A4604212046FFF7FEFD012384F82B
:105CDC005C302046FFF77FFB054610B901F0D8FE7B
:105CEC00F7E794F85C303BB12046FFF774FB18B132
:105CFC002046FFF779FFF4E702F0A2FE28460FB02A
:105D0C00F0BD00BFF8A50B0098E40320042904D8CB
:105D1C0000EB4100B0F8010070470A299BBF01F16C
:105D2C00FF3100EB41000131C08884BF00EB410022
:105D3C008088704710B50446243000F063FE28B10B
:105D4C0004F50C70BDE8104000F05CBE10BD411EA7
:105D5C0000F10A030020420842EAC01011F8012F9A
:105D6C0052FA80F08B42C0B2F5D170472DE9F04762
:105D7C00064610F8013B202BFAD06A4D8E600024A9
:105D8C00335DC3B12F2B16D05C2B02D10020BDE8A4
:105D9C00F087A3F12200C0B21D2803D825FA00F029
:105DAC00C007F3D403F0BF003C28EFD0203B5E2BA0
:105DBC00ECD80134E4E733191846074610F8015BB8
:105DCC00202DFAD02F2DF8D017604CB113F8012DDF
:105DDC002E2A01D0202A01D1013CF6E7FF2CD5DC7C
:105DEC004FF02033C1F811304C60C1F80D304B61CD
:105DFC004FF0000816F808302E2B01D0202B02D1C2
:105E0C0008F10108F6E7B8FA88F04009651E6B1C2A
:105E1C0002D0735D2E2B14D14FF0000907274A4690
:105E2C00CA464FF0080EA04568DA16F80830202B49
:105E3C0003D02E2B07D1A84512D0002008F1010861
:105E4C00F1E7013DE3E7222B08D07C2B06D0A3F130
:105E5C002A0CBCF1050F0AD82D2B12D0A8455BD10A
:105E6C000A2F4AD00A2708224FF0100EE6E7A3F1BA
:105E7C003A0CBCF1050FF1D9A3F15B0CBCF1020F8C
:105E8C00ECD9A3F1210CBCF15D0FE7D8A845E7D004
:105E9C00BA4230D8A3F1610CBCF1190F1AD8203BCF
:105EAC004EEA0909DBB25FFA89F902F1010C5FFADB
:105EBC008CFC0A44BCF1060F537301D881F80CC05A
:105ECC006246BBE7A84518DCA8460A2708224FF013
:105EDC00100EB2E7A3F1410CBCF1190F98BF4EEABA
:105EEC000A0AE2E70B7B0120087019447E234B73EE
:105EFC0031238B734BE70A2FE4D100204B7B202BF3
:105F0C003FF444AF0028EDD01AEA090F18BF4FF048
:105F1C00020981F800903AE7BA42ECD800205F23DE
:105F2C00C3E700BF010100312DE9F84391F80C9053
:105F3C0006460C4602257E2701F10D086168A26811
:105F4C006B189BB21144914206D012F8010B03EB73
:105F5C00431343409BB2F6E7B9F1030F28BF4FF050
:105F6C00030909F10402D2B203F00F01A018013A9F
:105F7C000929D2B294BF30313731914541734FEA80
:105F8C001313F1D104EB090300215F73304600F0C9
:105F9C002AFB0121304600F007FB014628B9707836
:105FAC00B0FA80F04009BDE8F88303786BB1C37A8E
:105FBC001B07EED40B22404604F08EF80028E8D1E3
:105FCC000135ADB2642DB9D1EDE70120EBE700004E
:105FDC002DE9F04F2DED028B8BB00D4606930B780F
:105FEC00079013F0700F174605D100200BB0BDECD5
:105FFC00028BBDE8F08F079B1B78002BF5D1536803
:10600C00059313789C071FBF059B0C330D22B3FB24
:10601C00F2F31ABF0133DBB20123002128460393AC
:10602C0000F0E1FA07F10D034FF0000B08EE103A07
:10603C00DA465C465E46CDF810B0D9466B69012154
:10604C002846C3F34F1800F0AFFA0346002871D16D
:10605C006B78002BC9D1069B9A05C6D503F00303B8
:10606C00013B012BC1D8049B002C08BF4346049371
:10607C00039B9C42C0F0F180B9F1000F40F00A8103
:10608C00049B2846590100F0AEFA0028ADD0039BC2
:10609C0003F1FF395FFA89F94E464FF0000A4FF0D1
:1060AC000F08002E00F00D810021284600F07CFA2C
:1060BC000446002899D0AA6892F824304E4543F043
:1060CC0001030CBF46F0400BB34682F8243080F835
:1060DC0000B080F80B8080F80CA007F10D00FFF7E2
:1060EC0036FE84F81AA0607384F81BA00BF01F0313
:1060FC000D22013BD7F808C0534300220599994261
:10610C0040F2D0801CF80310042A5FFA82FE02F1E0
:10611C00010000F2CD8004EB4202A2F801100D2820
:10612C0003F101030246E9D1013EF6B2B9E74FF0A3
:10613C00010983E70278E52A00D07AB90499002C8A
:10614C0008BF4146049103998C423CBF0134E4B230
:10615C00002A80D0E52A05D100266FE703998C42EE
:10616C0038BF00242E2AF7D0D97A0F294AD116BB72
:10617C0012F040063FF462AF02F01F0693F80DB028
:10618C00B2460D220AF1FF3802FB08F8059A424587
:10619C00E2D9A2EB08020892002202EB0801099155
:1061AC001846D1B2FFF7B2FD08998A420DD10028EA
:1061BC0018BF002642E70AF1FF3A5FFA8AFA524505
:1061CC00CAD15A7B5A45DCD0C6E7FF28C4D85FFA3F
:1061DC0080FEAEF141011929B9689CBF0EF1200077
:1061EC005FFA80FE08460999415CA1F1410CBCF1B3
:1061FC00190F9CBF2031C9B27145ADD101320D2AA6
:10620C00CBD11BE70807A7D45EB1BAF1010F7FF41D
:10621C00ECAE1846FFF79BFD58457FF4E6AEB14651
:10622C000EE018EE101A0B22184603F055FF00284A
:10623C007FF404AF97F8009019F001097FF477AF61
:10624C00069B19053FF5D1AE069B0798CDF800903B
:10625C004246294600F00AFAC8E60021284600F01A
:10626C00A3F9A0B96B78002B7FF4BFAE284600F0E1
:10627C0087F800283FF4B9AEAB681B79012B3FF6C9
:10628C00FBAE039B1034E4B2A342EFD8F4E6013426
:10629C00E4B2EDE639462846FFF746FE00287FF4C7
:1062AC00EFAEA2E614BF4FF0FF31002189B22BE70D
:1062BC00BEF10A0F94BF04EB420204EB4002918042
:1062CC002DE731462846D5F8148000F06DF90446C8
:1062DC0000283FF48AAE2022314603F01BFFD7F88A
:1062EC000D302360D7F811306360B7F81530238177
:1062FC00FB7DA3723B7803F0180323730F4B1B68D1
:10630C009BB104F10E0104F110009847238A6382BB
:10631C002383E389E382AA6892F8243043F00103D3
:10632C00C8F34F1882F824308EE7212323742823D6
:10633C0063740823A673E373E8E700BFB4E6032095
:10634C0038B504460D462422002103F0E3FEA56077
:10635C00EB79102B03D0202B06D0002038BD202346
:10636C0001202370A070F9E74023F9E783780169D5
:10637C0043F00403837000F11002806800F0F8BB56
:10638C002DE9F041017811F02005044603D00026D8
:10639C003046BDE8F0814269174B9A42F7D2FFF7BD
:1063AC00E5FF06460028F2D02169A06800F075FBD5
:1063BC000746A06805223946243000F04BFB804686
:1063CC000028E4D029464FF4007203F0A3FE012507
:1063DC00A3681A79AA4209D918684246E91900F04B
:1063EC00A6FE0028D3D00135EDB2F1E7636903EBCB
:1063FC0042236361CCE700BF00FE1F0010B50446CA
:10640C0080680A462430A16900F024FB20B1A388DF
:10641C0003F00F0300EB431010BD03780BB9FFF72B
:10642C008FBF002070472DE9F74F0378044688464C
:10643C001546002B5DD08278D1075AD51A072DD579
:10644C00C36942699B1A9D4228BF1D462E464FF0D8
:10645C00000904F1100B002E00F08F802278636984
:10646C00A0689706C3F3080A4FEA53211FD5006AA8
:10647C000144A068BAF1000F42D1B6F5007F3FD3BA
:10648C00C36A99423CD0B6F5806F52D2006842463E
:10649C0000F0C4FD68B34FF4007744E09B06D5D5FB
:1064AC0083681A894369C3EB42139BB2CBE790F81C
:1064BC00059009EA0109BAF1000F08D1B9F1000FF2
:1064CC0005D15BB951064CBF036A236A236121696C
:1064DC00A06800F0E2FA09EB0001CAE721695A460C
:1064EC0000F0E1FA002804DBF1D1237813F0700FEF
:1064FC0043D1637843F0020363704FF0FF303DE00B
:10650C00CAF50077B7424FF0000200F1240028BF13
:10651C00374600F09FFA0028EBD000EB0A013A4610
:10652C00404603F0E9FD63693B44B8446361F61BE4
:10653C0091E7227892064FEA562A06D40279A2EB0A
:10654C000902D2B2924528BF924699424FEA4A2795
:10655C0008D2A06853460068424600F0A7FD002808
:10656C00E1D1C6E753448B42F3D92430019100F0BA
:10657C0049FA01990028ECD1BBE7A81B03B0BDE890
:10658C00F08F73B501220DF10701D0E904560446D2
:10659C00FFF749FF01280ABF9DF807004FF0FF30B5
:1065AC00C4E9045602B070BD37B5436913F4F07FEB
:1065BC000446C3F3431500D099B901220DF107012C
:1065CC002046FFF730FF40B2012802D0002003B074
:1065DC0030BD63691F33A0686361303000EB451038
:1065EC00F5E72033F7E72DE9F04102780769044617
:1065FC000D4662B14069884202D019B921616561CA
:10660C00012006E0160706D5E3698B420BD2276101
:10661C000020BDE8F081910605D5A3681B89B5EB78
:10662C00431FECD9F3E7D4F808C09CF80660431E6E
:10663C0006F109016E1ECB40CE40B34200D898B98A
:10664C0053064CBFDCF82030236A236104F1100898
:10665C00002ED4D02169A068424600F024FA00280C
:10666C0006F1FF36F4DCD2E7F61AEFE7F8B50F4681
:10667C0004461546002124221E4603F04BFDB86843
:10668C00A060A58005F00F053B6AE3606A0100EB92
:10669C00451595F83B301F0744D403F017032370BE
:1066AC0095F83B1011F0180F04BF43F0080323704A
:1066BC009DF81830E37006F00303012B2CD0022B4D
:1066CC0028D07BBB71052DD40123A370A1788B0737
:1066DC0004D52378DF0625D4DD0723D4B31123F0AA
:1066EC007F0306F008052B430B43A370C36AA36119
:1066FC008318B3F84420B3F84A1041EA02417205FA
:10670C0013D559B9A37843F00403A370730410D4C0
:10671C000120F8BD0323D8E70223D6E700F063FA83
:10672C000028EFD100202070F3E72162DB6CE361DD
:10673C00ECE7E1692046FFF756FF0028E8D1F1E7C6
:10674C0038B5037804460BB9012038BD83785A0755
:10675C0023D50121FFF752FE054628B9637843F093
:10676C00010363700020F0E70378E52BF6D0237863
:10677C001B0744BFE369C361236A4383638C838231
:10678C00094B1B682BB100F11601183098472B8B65
:10679C006B82A37823F00403A370A068FFF7CAFAF6
:1067AC000028DBD0D0E700BFB4E6032010B50446C8
:1067BC00FFF7C6FF0023237010BDF0B593B01F4642
:1067CC00002309930378019206460C4613B100206E
:1067DC0013B0F0BD0B7813F0700FF8D013782F2B8B
:1067EC0012D1019A13782F2B02D101320192F8E7C2
:1067FC00A1681BB93046FFF710FEE9E709A8FFF7BF
:10680C009FFD0028E3D009AC019801AA03A9FFF76A
:10681C00ADFA0028DBD0019B1B789BB1002303AAA7
:10682C0021463046FFF7D4FB0028D0D035460FCD9B
:10683C0009AC0FC40FCD0FC42B6823603046FFF793
:10684C00B5FFE0E73B4603AA21463046FFF7C0FB05
:10685C00BEE700002DE9F047037889461907044686
:10686C0017465BD583789A0758D51B0751D46369B3
:10687C00DB43BB4252D3B84604F1100A6669B8F147
:10688C00000F00F09180A0684379C6F3080513EA65
:10689C0056260ED16DB92169002946D0524600F01A
:1068AC0002F900283ADB04D12046FFF75FFD0028EF
:1068BC0034D02169A06800F0F0F83118A06815B93F
:1068CC00B8F5007F3FD2C5F50076464528BF464651
:1068DC00002D36D16269E3699A4234BF0122052248
:1068EC00243000F0B7F8C8B1284432464946354444
:1068FC0003F002FCB5F5007F04D1A068243000F051
:10690C0081F858B1636933446361B144A8EB06085C
:10691C00B4E7C169FFF767FE0028A8D1637843F09C
:10692C00010363704FF0FF3050E0236A3BB92046FF
:10693C00FFF71CFD0028F1D023692362B9E723611E
:10694C00B7E70122CCE7B8F5806FC26A1BD390F889
:10695C0004C0ACEB0606F3B24FEA582E734528BFC1
:10696C00734691424FEA432607D31A448A4282BFA8
:10697C004FF0FF3280F82450C262A5684A4628685E
:10698C0000F04BFCBDE7914202BF4FF0FF3380F8A3
:10699C002450C362A3684A46186800F0C8FB00285C
:1069AC00BCD04FF40076ADE7E269A378B24204D2D2
:1069BC00E66143F00403A37003E0084A1268002A5E
:1069CC00F7D194F90230002B02DB3846BDE8F08792
:1069DC002046FFF7B5FE0028F7D19FE7B4E6032069
:1069EC0013B50446084659B1019103F0DBFB23684B
:1069FC000199DB680246204602B0BDE810401847FA
:106A0C0002B010BD37B50378DA07044620D54368C9
:106A1C00816800F10C021868019200F088FB019A61
:106A2C00054618B90025284603B030BD23789B07CE
:106A3C0004D4237823F001032370F4E7D4E9013064
:106A4C0019690144186800F072FB0028F1D1E9E7DC
:106A5C000125E8E770B583688B4204460E4615465F
:106A6C0009D0FFF7CFFF08B9002070BD6B070AD51E
:106A7C0000232370A660227805F0030520461543F9
:106A8C0000F80C5BF1E7636804F10C0218683146FE
:106A9C0000F0C4FA0028EBD1E6E7837940690239AB
:106AAC00994008447047012970B505460C461646B6
:106ABC0002D84FF0FF3070BDC3698B42F9D3C37954
:106ACC00202B16D18169022201EBD41100F50C7038
:106ADC00FFF7C0FF0028ECD004F07F0450F82430FE
:106AEC0023F07043EA699A4226BF336001200020EC
:106AFC00E1E7102BDDD1C1F3072381690222194490
:106B0C0000F50C70FFF7A6FF0028D2D0E4B230F8E5
:106B1C001430E7E7012938B50C46154601D800209A
:106B2C0038BDC3698B42FAD3C379202B0FD181694D
:106B3C00032201EBD41100F50C70FFF78BFF00283A
:106B4C00EDD004F07F0440F824500120E8E7102B2E
:106B5C00E5D1C1F3072381690322194400F50C70B8
:106B6C00FFF778FF0028DAD0E4B220F81450ECE7F5
:106B7C002DE9F341C4688C4205460E46904601D37C
:106B8C00012701E00C460027EB690134A34202D235
:106B9C00C7B9EC68F4E7A64214D001AA21462846EE
:106BAC00FFF781FF00280DDBEED0019B002BEBD112
:106BBC0007B1EC606FF0704221462846FFF7AAFF40
:106BCC00074620B90027384602B0BDE8F08116B957
:106BDC00C8F80040F7E7224631462846FFF79AFFEF
:106BEC000028F5D1EEE773B505460C4601AA2146FF
:106BFC002846FFF758FF061E10DB002221462846C8
:106C0C00FFF788FF50B1EB68A34224BF04F1FF34B7
:106C1C00EC60019C002EE9D102B070BD0020FBE7B6
:106C2C00012370B50022C3604FF0FF330446C271DC
:106C3C0000F12406806280F82420C362C0F834027C
:106C4C0080F83022C0F838320D46B9B1042901D988
:106C5C00002070BD11463046FFF7FCFE0028F7D02F
:106C6C0000EB051393F8AE315B06F1D105F11B0176
:106C7C0000EB0110D0F80650002DE9D00022294677
:106C8C003046FFF7E7FE0028E2D0B0F80B30B3F542
:106C9C00007FDDD1037C022BDAD1C389002BD7D046
:106CAC00417B21714B1E63710023A37109260123C3
:106CBC00994207D0013ECBD0A2795B000132DBB206
:106CCC00A271F5E7C18A01B9416A2161C3892B44DC
:106CDC00A361B0F81120228103EB41032362B0F8C9
:106CEC001110490101F2FF1103EB51236361B0F85C
:106CFC00132002B9026AE91AA3791144D9404B1C3A
:106D0C00E36140F6F473994202D80C23E3719FE7D8
:106D1C004FF6F473994285BFC36A23621023202374
:106D2C00E371012095E700F0CBBA00F0AEBA000099
:106D3C0070B50E4E0D46144600F09AFE3368C01A1C
:106D4C000B4B984208D900F09BFE0A4B186001F0DF
:106D5C00B3F800F08DFE306000F092FE80B2401B64
:106D6C00A042D4BF0020012070BD00BFBCE60320B0
:106D7C00A086010040E7032038B5057A04464DB9DA
:106D8C00406800F06BFA63682946187D02F035FB09
:106D9C000123237238BD10B5037A04466BB14368E6
:106DAC000121187D02F029FB6068FF21FFF7BBFF72
:106DBC00606800F067FA0023237210BDF8B5044632
:106DCC000D46164600F05CFE87B26068FFF7ADFF1B
:106DDC00FF2860720ED14FF47A7239462046FFF7C5
:106DEC00A7FF0028F1D0552320462370FFF7D3FFCF
:106DFC000020F8BDFE2801D05023F5E7606832462C
:106E0C00294600F047FA607208B16023ECE760682D
:106E1C00FFF78BFF6068FFF788FF0120E9E770B58B
:106E2C0004460E4600F02CFE85B23246294620461A
:106E3C00FFF77EFF30B96068FFF777FFFF28F4D1CA
:106E4C00012070BD0020FCE7F7B5037A01920446DF
:106E5C000D460BB9FFF790FF25B14FF49671204604
:106E6C00FFF7DDFF606845F04001FFF75CFF03268C
:106E7C0001AFB95D6068FFF756FF013EF9D2002DF6
:106E8C0060680CBF95218721FFF74DFF6068FFF705
:106E9C004CFF0B256068FFF748FF0306607203D5B3
:106EAC00013D15F0FF05F5D103B0F0BD70B50446FA
:106EBC000D46164637210022FFF7C6FF32462946FB
:106ECC002046BDE87040FFF7BFBF00002DE9F04140
:106EDC0000250572057085724160044690461E4679
:106EEC0000F0CEFD41460746606800F0BBF96368D0
:106EFC00494A1D720125DA601D822046FFF73CFFCE
:106F0C0063682946187D02F078FA0A256068FF212B
:106F1C00013DFFF708FF15F0FF05F7D1636829461F
:106F2C00187D02F06AFA0A25002211462046FFF766
:106F3C008BFF0128804618D0013D15F0FF0507D1C5
:106F4C00202320462370FFF726FF0020BDE8F081A8
:106F5C006068FD21FFF7E7FE4FF402786068FFF7E9
:106F6C00E4FEB8F10108F9D1DEE74FF4D57208213F
:106F7C002046FFF769FF052814D184F80A80002504
:106F8C00BFB22A4629212046FFF790FF0246D8B10E
:106F9C004FF4FA6239462046FFF7CAFE0028F0D0BB
:106FAC004323CEE704256068FFF7BFFE013D15F0D3
:106FBC00FF056072F7D1AA2804D10223A3724FF007
:106FCC008045DDE72523BCE7A37A022B18D13A21B3
:106FDC002046FFF739FF08B13723B2E76068FFF7A7
:106FEC00A4FE00F0C000C02804BF0323A372606895
:106FFC00FFF79BFE6068FFF798FE6068FFF795FE51
:10700C002046FFF7C8FE63683079B168B2891A82EE
:10701C001872D960012099E790D0030038B5837AB3
:10702C00032B18BF490215460A4611210446FFF7E7
:10703C000BFF30B1302323702046FFF7ACFE002548
:10704C000BE029464FF400722046FFF7B7FE0546C9
:10705C000028F1D02046FFF79EFE284638BD10B51B
:10706C00837A032B0A4618BF4A0212210446FFF703
:10707C00EBFE30B1312320462370FFF78CFE00204D
:10708C0010BD0120FCE710B500220C210446FFF7CF
:10709C00DBFE30B1282320462370FFF77CFE002056
:1070AC0010BD2046FFF777FE0120F9E7F8B504463E
:1070BC0016461F46FFF7D3FF68B10025ABB29F42BF
:1070CC0006EB452109D94FF400722046FFF776FEF6
:1070DC0001350028F2D10020F8BD2046BDE8F8406B
:1070EC00FFF7D1BF38B5044615464068FFF71BFEC5
:1070FC004FF400726068294600F0E6F86068FF21E2
:10710C00FFF711FE6068FF21FFF70DFE6068FFF7C7
:10711C000CFE607200F01F00052806D05723204695
:10712C002370FFF738FE002038BD0120FCE770B556
:10713C00837A032B18BF490215460A4618210446C8
:10714C00FFF782FE064630B1322323702046FFF74C
:10715C0022FE00251FE02A46FE212046FFF7C2FF33
:10716C000028F3D04FF4FA612046FFF758FE05468D
:10717C0008B95A23E9E732460D212046FFF764FE91
:10718C0008B12923E1E76068FFF7CFFD0028F8D1AB
:10719C002046FFF700FE284670BD13B501914FF451
:1071AC00FA610446FFF73BFE019A30B95B2323706A
:1071BC002046FFF7F0FD002005E0FC212046FFF7FC
:1071CC0091FF0028F4D002B010BD10B5837A032BC8
:1071DC000A4618BF4A0219210446FFF735FE30B1A2
:1071EC00332320462370FFF7D6FD002010BD01206D
:1071FC00FCE738B54FF4FA610446FFF710FE05467C
:10720C0030B9562323702046FFF7C5FD284638BDFC
:10721C006068FD21FFF787FDF5E7F8B504461646D3
:10722C001F46FFF7D2FF70B10025BD4206EB45218A
:10723C00204604D0FFF7B1FF28B10135F5E7BDE8D2
:10724C00F840FFF7D6BF2046FFF7A5FD0020F8BD9C
:10725C00014B01221A707047C0E60320011D006823
:10726C0000F0F6BE10B504460175006800F0C2FED1
:10727C00207D012102F0B0F8207D0121BDE81040F5
:10728C0002F0BBB8006800F0C9BE0068FF2100F036
:10729C004DBF000037B51346074A00920025074C36
:1072AC00006825700A46294600F046FF2378002B1B
:1072BC00FCD0002003B030BD5D720B00C0E6032093
:1072CC00006800F033BF000037B51346064A009241
:1072DC000025064C006825702A4600F02DFF237807
:1072EC00002BFCD003B030BD5D720B00C0E6032058
:1072FC0001F09EB900F0C4BB7047704770470000A6
:10730C0003065ABF024B53F820000020704700BF01
:10731C0018A60B0003065ABF024B53F8200000209E
:10732C00704700BF18A80B00072928BF072110B50C
:10733C000170044602F044F901F014FC282000F01E
:10734C008FFB02F03DF9217841F0200101F040FC67
:10735C00282000F085FB02F033F9036800219B68BC
:10736C009847282000F07CFB02F02AF90368FF21E3
:10737C009B689847282000F073FB02F021F9036802
:10738C0000219B689847282000F06AFB02F018F94E
:10739C00036800219B689847282000F061FB02F0ED
:1073AC000FF9036800219B689847282000F058FBD0
:1073BC0002F006F9036800219B689847282000F02A
:1073CC004FFB02F0FDF8036800219B6898472820CA
:1073DC0000F046FB02F0F4F8036800219B68984724
:1073EC00282000F03DFB02F0EBF8036800219B68BD
:1073FC009847282000F034FB02F0E2F803680021E3
:10740C009B689847282000F02BFB02F0D9F8036802
:10741C0000219B689847282000F022FB02F0D0F84E
:10742C0001F0DDFBBDE81040282000F019BB38B599
:10743C0004460D4602F0C4F8217841F0200101F019
:10744C00C7FB282000F00CFB02F0BAF803682946B1
:10745C009B689847282000F003FB02F0B1F801F07C
:10746C00BEFB282000F0FCFA02F0AAF821780122D9
:10747C0041F0200101F0A5FB282000F0F1FA02F008
:10748C009FF803685B699847C0B238BD0921FFF7C4
:10749C00CEBF70B5064614460D4602F091F8317811
:1074AC0041F0200101F094FB282000F0D9FA02F001
:1074BC0087F8036829469B689847282000F0D0FA83
:1074CC0002F07EF8036821469B689847282000F05C
:1074DC00C7FA02F075F801F082FBBDE87040282075
:1074EC0000F0BEBA072970B504460D46164613D8EF
:1074FC000021FFF79CFF012303FA05F149B246B9BD
:10750C0041EA00022046D2B2BDE870400021FFF7EC
:10751C00C0BF20EA0102F5E770BD0A460921FFF75A
:10752C00B8BF072970B504460D46164610D8FFF7AC
:10753C00ADFF012303FA05F149B29E420CBF014392
:10754C0020EA0101C9B22046BDE87040FFF7E5BF53
:10755C0070BD704710B520210446FCF798FD2046FD
:10756C0010BD0000064A02600022C2744260054A47
:10757C00826040F204528281062241778273704706
:10758C0020AA0B0001FF020370B504460846637F76
:10759C00FF2B05D004F11E00BDE87040FFF7C1BF02
:1075AC00637EFF2B1BD0012594F91C30E07E05FA7D
:1075BC0001F1AA4249B20CBF0B438B43DBB22377D8
:1075CC00002101F01AFF617EA07E237F012201F0D1
:1075DC007DFFE07E0121BDE8704001F00EBF114639
:1075EC00F9E7437FFF2B0A4602D1437EFF2B02D0E3
:1075FC000721FFF7C9BF704730B4034608465D7FCB
:10760C00FF2D04D030BC03F11E00FFF76BBF5B7E77
:10761C00FF2B03D130BC114601F0DEBE30BC7047ED
:10762C0010B500220446817AFFF7AEFF012000F06E
:10763C0017FAA17A01222046FFF7A6FF012000F0DD
:10764C000FFA2046A17A0022FFF79EFFBDE81040FA
:10765C00642000F005BA2DE9F041437FFF2B04466E
:10766C000E4600F10B053DD000F11E084046FFF719
:10767C000DFF0127002215F8011B07FA01F320EA80
:10768C00030046FA02F303F001038B400132184366
:10769C00042A41B2C0B2EED1A37A07FA03F321EA6D
:1076AC0003014DB24046C9B2FFF737FF012000F08D
:1076BC00D7F9A17A07FA01F129434DB24046C9B274
:1076CC00FFF72BFF012000F0CBF9A17A8F4025EAC0
:1076DC0007074046F9B2FFF720FFBDE8F0416420F0
:1076EC0000F0BEB90027297801222046FFF784FF5D
:1076FC0046FA07F215F8011B02F001022046013789
:10770C00FFF742FF042FEED12046BDE8F041FFF712
:10771C0087BF73B50E4600F10B0500242978019044
:10772C000122FFF769FF46FA04F2019815F8011BD4
:10773C0002F001020134FFF727FF082C0198EDD16C
:10774C0002B0BDE87040FFF76BBF38B504460D467C
:10775C00017AFFF719FF617AFF2903D00022204636
:10776C00FFF712FFE37CDB0605D529462046BDE872
:10777C003840FFF7CEBF29092046FFF76CFF29469A
:10778C002046BDE83840FFF766BF08B50122FFF779
:10779C00DCFF012008BD0022FFF7D7BF08B501218F
:1077AC00FFF7F9FFBDE808404FF4FA6000F058B954
:1077BC007FB50E4B064615460C460FCB0DF1100C43
:1077CC000CE90F00F27DAA423CBF02F1FF32D5B2A8
:1077DC0004AB03EB8505304655F8101C214461F0D1
:1077EC007F01C9B2FFF7D7FF04B070BD30AA0B0000
:1077FC0008B5017D41F00402027541F00C01FFF760
:10780C00CAFF08BD2DE9F843417FFF290446154600
:10781C001F467ED000F11E063046FFF785FD012283
:10782C0007213046FFF75EFE012207213046FFF7A5
:10783C0078FE04F10B0804F10F0918F8011B012262
:10784C002046FFF7D9FEC845F7D1217A01223046F0
:10785C00FFF748FEA17A01223046FFF743FE012DC7
:10786C0088BFE37CE57584BF43F00803E374002311
:10787C0023762FB1012D02BFE37C43F00403E374A4
:10788C004CF2503000F0ECF8217A00222046FFF741
:10789C007BFEA17A00222046FFF776FE617AFF2953
:1078AC0003D000222046FFF76FFEE17CCB0636D4D6
:1078BC0003212046FFF7CFFE41F2941000F0D0F8E0
:1078CC0003212046FFF7C7FE41F2941000F0C8F8E0
:1078DC0003212046FFF7BFFE962000F0C1F80221DD
:1078EC002046FFF7B8FEE17C204641F02001FFF76F
:1078FC0052FF042323752046FFF77AFF2046FFF73B
:10790C004DFF0223637506212046FFF744FFBDE8B7
:10791C00F883437EFF2B1CBF802303779FE741F046
:10792C0020012046FFF737FF41F2941000F098F841
:10793C00E17C204641F02001FFF72DFF962000F05E
:10794C008FF8E17C204641F02001FFF724FFCAE7C5
:10795C0008B5024B1B689B68019308BD68020300C5
:10796C0008B5024B1B68DB68019308BD6802030075
:10797C0008B5024B1B681B68019308BD2C02030061
:10798C0008B5024B1B685B68019308BD2C02030011
:10799C0008B5024B1B689B68019308BD2C020300C1
:1079AC0008B5024B1B68DB68019308BD2C02030071
:1079BC0008B5024B1B681B69019308BD2C02030020
:1079CC0008B5024B1B685B69019308BD2C020300D0
:1079DC0008B5024B1B689B69019308BD2C02030080
:1079EC0008B5024B1B68DB69019308BD2C02030030
:1079FC0008B5024B1B681B6A019308BD2C020300DF
:107A0C0008B5024B1B685B6A019308BD2C0203008E
:107A1C0008B5024B1B689B6A019308BD2C0203003E
:107A2C0008B5024B1B681B6B019308BD2C020300AD
:107A3C0008B5024B1B689B6F019308BD2C02030019
:107A4C0008B5024B1B685B69019308BD6C0203000F
:107A5C0008B5024B1B685B68019308BD1802030054
:107A6C0008B5024B1B68DB68019308BD18020300C4
:107A7C0008B5024B1B681B69019308BD1802030073
:107A8C0008B5024B1B685B69019308BD1802030023
:107A9C0008B5024B1B68DB68019308BD4802030064
:107AAC0008B5024B1B685B6C019308BD48020300D0
:107ABC0008B5024B1B685B69019308BD64020300A7
:107ACC0008B5024B1B681B6A019308BD64020300D6
:107ADC0008B5024B1B689B6A019308BD6402030046
:107AEC0008B5024B1B68DB68019308BD3C02030020
:107AFC0008B5024B1B681B69019308BD3C020300CF
:107B0C0008B5024B1B685B69019308BD3C0203007E
:107B1C0008B5024B1B689B69019308BD3C0203002E
:107B2C0008B5024B1B68DB69019308BD3C020300DE
:107B3C0008B5024B1B681B6A019308BD3C0203008D
:107B4C0008B5024B1B689B6A019308BD3C020300FD
:107B5C0008B5024B1B681B6C019308BD3C0203006B
:107B6C0008B5024B1B68DB68019308BD28020300B3
:107B7C0008B5024B1B689B69019308BD28020300E2
:107B8C0008B5024B1B68DB69019308BD2802030092
:107B9C0008B5024B1B681B6A019308BD2802030041
:107BAC0008B5024B1B685B6A019308BD28020300F1
:107BBC0008B5024B1B689B6A019308BD28020300A1
:107BCC0008B5024B1B68DB6A019308BD2802030051
:107BDC0008B5024B1B681B6B019308BD2802030000
:107BEC0008B5024B1B685B6B019308BD28020300B0
:107BFC0008B5024B1B681B6C019308BD28020300DF
:107C0C0008B5024B1B681B6D019308BD28020300CD
:107C1C0008B5024B1B689B69019308BD3802030031
:107C2C0008B5024B1B68DB69019308BD38020300E1
:107C3C0008B5024B1B681B6A019308BD3802030090
:107C4C0008B5024B1B689B6A019308BD3802030000
:107C5C0008B5024B1B681B6B019308BD380203006F
:107C6C0008B5024B1B689B6B019308BD38020300DF
:107C7C0008B5024B1B681B68019308BD300203005A
:107C8C0008B5024B1B685B69019308BD3002030009
:107C9C0008B5024B1B68DB69019308BD3002030079
:107CAC0008B5024B1B681B6A019308BD3002030028
:107CBC0008B5024B1B685B6A019308BD30020300D8
:107CCC0008B5024B1B689B6A019308BD3002030088
:107CDC0008B5024B1B689B6B019308BD3002030077
:107CEC0008B5024B1B68DB6B019308BD3002030027
:107CFC0008B5024B1B681B6C019308BD30020300D6
:107D0C0008B5024B1B685B6C019308BD3002030085
:107D1C0008B5024B1B681B68019308BD4C0203009D
:107D2C0008B5024B1B685B68019308BD4C0203004D
:107D3C0008B5024B1B681B69019308BD4C0203007C
:107D4C0008B5024B1B685B69019308BD4C0203002C
:107D5C0008B5024B1B689B69019308BD4C020300DC
:107D6C0008B5024B1B68DB69019308BD4C0203008C
:107D7C0008B5024B1B681B6A019308BD4C0203003B
:107D8C0008B5024B1B685B6B019308BD60020300D6
:107D9C0008B5024B1B681B6D019308BD6002030004
:107DAC0008B5024B1B685B68019308BD20020300F9
:107DBC0008B5024B1B685B69019308BD20020300E8
:107DCC0008B5024B1B68DB6A019308BD2002030057
:107DDC0008B5034B1B68D3F88830019308BD00002D
:107DEC002002030008B5034B1B68D3F894300193B1
:107DFC0008BD00002002030008B5024B1B685B683D
:107E0C00019308BD4002030008B5024B1B689B6838
:107E1C00019308BD4002030008B5024B1B68DB68E8
:107E2C00019308BD4002030008B5024B1B681B6997
:107E3C00019308BD4002030008B5024B1B685B6947
:107E4C00019308BD4002030008B5024B1B689B69F7
:107E5C00019308BD4002030008B5024B1B68DB69A7
:107E6C00019308BD4002030008B5024B1B681B6A56
:107E7C00019308BD4002030008B5024B1B681B6B45
:107E8C00019308BD4002030008B5024B1B685B6BF5
:107E9C00019308BD4002030008B5024B1B681B6C24
:107EAC00019308BD4002030008B5024B1B685B6CD4
:107EBC00019308BD4002030008B5024B1B689B6888
:107ECC00019308BD4402030008B5024B1B68DB6B31
:107EDC00019308BD4402030008B5024B1B681B68E4
:107EEC00019308BD1C02030008B5024B1B685B68BC
:107EFC00019308BD1C02030008B5024B1B689B686C
:107F0C00019308BD1C02030008B5024B1B68DB691A
:107F1C00019308BD1C02030008B5024B1B685B6A89
:107F2C00019308BD1C02030008B5024B1B68DB6BF8
:107F3C00019308BD1C02030008B5024B1B681B6CA7
:107F4C00019308BD1C02030008B5024B1B685B6C57
:107F5C00019308BD1C020300002240681146FFF784
:107F6C0083BF002240681146FFF78EBF4068002295
:107F7C00FFF782BF4068002281F00101FFF76CBF60
:107F8C00002340681A461946FFF75EBF002340687D
:107F9C001A461946FFF750BF002240681146FFF7FA
:107FAC0043BF002240681146FFF72EBF40680022F5
:107FBC000221FFF731BF002340681A46FFF71CBFB0
:107FCC00024B03225A60024A1A607047C4E603202F
:107FDC0048AA0B000021FFF793BE0021FFF788BED3
:107FEC0010B5044608462170FFF752FE002363606B
:107FFC00204610BD13B504460078FFF7EEFF58B9C4
:10800C00207801904FF6FF71FFF732FE019802B015
:10801C00BDE81040FFF7DEBF02B010BD0078FFF7DF
:10802C00D9BF0000400830B5186000241868884299
:10803C00E5B206D90134082C02D040081860F5E7E7
:10804C000725024B5B5D137030BD00BF7CAA0B0093
:10805C002DE9F04306468FB000780C46FFF7BDFFC4
:10806C0000281BDB35781422002109A802F052F8F5
:10807C000B23002209A92846ADF82430FFF718FE7F
:10808C009DF82D3013B19DF82C5055B10027B946F1
:10809C00B846012523795DB1C3B100200FB0BDE80E
:1080AC00F083DDF830809DF834909DF83570F1E761
:1080BC00002B35D1A368434508D18DF820908DF85D
:1080CC002170BDF82020A3899A42E6D00023A16834
:1080DC008DF80F300A9804AB0DF10F02FFF7A2FFD9
:1080EC00217985B989B9A36843450ED38DF82090C1
:1080FC008DF82170BDF82020A3899A4205D1049BEC
:10810C00434502D1C9E70029F9D100230193637BD0
:10811C0000939DF80F20237B3078FFF7E1FDBCE73F
:10812C00CDE900552B462A460121F5E708B5007824
:10813C00FFF7A6FDC0B208BD30B587B004460A9D56
:10814C0000950078FFF7BCFD3DB9207802A9FFF738
:10815C00BFFD9DF81430DB07F7D407B030BD00002D
:10816C00054B02221A60054B054A9A600020C3E9B0
:10817C000000FFF715BE00BFD8E60320CCE60320B5
:10818C000000FFFF10B5044602F00CF8013823186C
:10819C002046834206D90278197800F8011B03F8AF
:1081AC000129F6E710BD70B50C46911E22291DD889
:1081BC00254630B9234430229D4210D205F8012BBC
:1081CC00FAE7B0FBF2F602FB1600C1B2092894BF25
:1081DC0030315731C9B205F8011B3046E9E70023AD
:1081EC0020462B70FFF7CEFF204670BD0020FCE729
:1081FC0038B5031E0C4615460EDAB3F1004F4FF09E
:10820C002D0214BF5842184601230A702A461944FD
:10821C00FFF7C9FF204638BD0123F9E710B5044626
:10822C000068FFF761FE204610BD10B504460068DB
:10823C0008B1FFF759FE0023C4E90133236010BDD8
:10824C0038B504460D4600680131FFF755FE10B1F4
:10825C00C4E90005012038BD10B50368044623B1FC
:10826C0043688B4201D3012010BD2046FFF7E8FF85
:10827C000028F9D0A368002BF5D122681370F2E71F
:10828C0037B50D46114601920446FFF7E5FF019AFA
:10829C0028B92046FFF7C9FF204603B030BDA260C5
:1082AC002946206801F028FF2268A3680021D154D8
:1082BC00F2E7002313B5C0E900330446836003736F
:1082CC0041B10846019101F06DFF0199024620462B
:1082DC00FFF7D6FF204602B010BD38B50546006842
:1082EC000C4668B16A688B689A4207D3096801F03A
:1082FC0051FFA368AB600023A36038BDFFF7F4FD0A
:10830C0023682B6063686B60A368AB600023C4E9CF
:10831C000033F1E7884210B5044605D00B682BB149
:10832C008A681946FFF7ACFF204610BDFFF77DFFAA
:10833C00FAE710B500230446C0E9003383600373E9
:10834C00FFF7E8FF204610BD884210B5044601D067
:10835C00FFF7C3FF204610BD13B5044659B10846BC
:10836C00019101F01FFF019902462046FFF788FF9B
:10837C00204602B010BDFFF758FFF9E710B50446D0
:10838C008AB00023C4E90033A3602373084601A913
:10839C00FFF72EFF01A92046FFF7DEFF20460AB0AB
:1083AC0010BD10B504468AB00023C4E90033A360A5
:1083BC0023730846012301A9FFF7F5FE01A9204606
:1083CC00FFF7CAFF20460AB010BD70B505460E4631
:1083DC0009B9002070BD6AB1846814442146FFF7C6
:1083EC003BFF0028F5D02868AB683146184401F0F3
:1083FC00D1FEAC600120EDE710B58A68096804462F
:10840C00FFF7E3FF10B92046FFF70FFF204610BD22
:10841C0013B5044629B92046FFF707FF204602B0E2
:10842C0010BD0846019101F0BDFE0199024620469F
:10843C00FFF7CBFF0028EED0F0E70000F8B59A422A
:10844C000F461D460C4988BF13461446064684BF8A
:10845C002C461D46FFF72DFFBB68A3420AD3396893
:10846C00AB4294BFC4EB0302C4EB0502214430467B
:10847C00FFF706FF3046F8BD76A40B0010B5436835
:10848C00013B0446436063B903689B689847A36843
:10849C00013BA3602BB923682046DB68BDE8104084
:1084AC00184710BD024800230360FFF7F9BA00BF5C
:1084BC00DCE60320F8B506460D468F180024BD42B5
:1084CC000CD0336815F8011B9B6830469847031E87
:1084DC0001DB1C44F3E7002C08BF1C462046F8BD0A
:1084EC0008B5FEF77DFA08BD03689B68184738B5D8
:1084FC000D210546FFF7F8FF0A2104462846FFF731
:10850C00F3FF204438BD38B50546FEF769FA04463A
:10851C002846FFF7ECFF204438BD30B58BB0002364
:10852C00012A8DF8243098BF0A2209AC0D46B1FB04
:10853C00F2F101FB125303F0FF03092B94BF30330C
:10854C003733DBB2AA4204F8013DEFD92146FEF7DE
:10855C0047FA0BB030BD2DE9F04186B000AF0546AF
:10856C000E46381D142114463B60FFF7D5FC13282A
:10857C000ED8391D2846FEF733FA04461EB128469C
:10858C00FFF7B5FF044420461837BD46BDE8F0811F
:10859C0000F1080323F00703E846ADEB030D224678
:1085AC00411C3B686846FFF7B7FC69462846FEF756
:1085BC0017FA0446C546E1E710B50446FFF760FA22
:1085CC00E060236820465B699847002808DAFFF7CB
:1085DC0057FAE368C01AA3689842F2D34FF0FF3001
:1085EC0010BD2DE9F04107460C468E180D46B542DC
:1085FC00A5EB040807D03846FFF7DEFF031E02DBAD
:10860C0005F8013BF3E74046BDE8F081014B024A17
:10861C001A607047E0E603208CAA0B00024B1A6824
:10862C00024B1A60704700BFBCDF0320E4E6032056
:10863C000021FFF7BDBB000010B5044B03600446DE
:10864C00806908B1FFF71AFF204610BD84AB0B0000
:10865C0010B50446FFF7F0FF20461C21FBF717FD71
:10866C00204610BD014B00229A607047E8E60320BB
:10867C00014B1860704700BFC0DF032008B50B4BDF
:10868C0043B100F089F903681B699847002801DDA4
:10869C00AFF30080064B43B100F056FF03681B6933
:1086AC009847002801DDAFF3008008BD00000000F2
:1086BC000000000008B5FFF7E1FFFFF7E1F9014BFF
:1086CC00186008BD40E703200548064A064908B56E
:1086DC00121A01F011FD054B054A1A6008BD00BFC6
:1086EC0000F4032004F4032014AF0B0000F4032067
:1086FC001E1C279A07B5002300931A466FF07701CA
:10870C00FFF770FB03B05DF804FB000007B543886E
:10871C000A2B08D0502B0BD1094B1B684BB103B063
:10872C005DF804EB1847FFF7E5FF03B05DF804FBB9
:10873C00002300931A466FF07701FFF753FBF4E721
:10874C00FCE6032010B512480021FFF7FDFB114B8E
:10875C001A68114B9A42114B0CBF012200221A705D
:10876C0001D0FFF7B1FFFFF773F9044601F0DAFC13
:10877C000B4B13B12046AFF3008000210848FFF7E4
:10878C00A3FBBDE8104007480021FFF721BB00BF49
:10879C007D860B0000F403201E1C279AF8E60320AC
:1087AC000000000019870B00704710B51821044613
:1087BC00FBF76DFC204610BDF0B5037D062B8DB08C
:1087CC000E4600F104074FF0000412D000F108052A
:1087DC0015F8011D0A223046FFF79FFEAF420444F4
:1087EC0019D0002CF4D02E213046FFF77DFE044426
:1087FC00EEE72F236A4639460A208DF80040FFF732
:10880C0057F9684601F0CEFC33680246DB686946CE
:10881C0030469847044620460DB0F0BD10B5054BC8
:10882C000446112240F8043B002101F073FC204661
:10883C0010BD00BFB4AA0B000346074A10B543F89D
:10884C00042B01F1100251F8044B43F8044B9142F4
:10885C00F9D10A781A7010BDB4AA0B00037D042B51
:10886C0004D14068003818BF01207047062B07D18F
:10887C0043683BB983682BB9C3681BB90069F1E73E
:10888C00002070470120704710B59DF8084044EA5D
:10889C00032343EA024242EA016104234160037567
:1088AC0010BD000013B5044C04609DF810400094FA
:1088BC00FFF7EAFF02B010BDB4AA0B0007B5064BD8
:1088CC000360CB7800938B784A780978FFF7DCFF4C
:1088DC0003B05DF804FB00BFB4AA0B0041747047F1
:1088EC007047704708B50021007CFFF731FA40EA69
:1088FC00E07008BD08B50121007CFFF729FA40EAB9
:10890C00E07008BD08B5007CFFF71AFA20EAE070A9
:10891C0008BD08B5007CFFF70BFA20EAE07008BD33
:10892C0013B50446007C0191FFF70AFA002801995F
:10893C0001DC607C20B1207CFFF712FA20EAE070A9
:10894C0002B010BD007CFFF713BA10B51421044619
:10895C00FBF79DFB204610BD10B54FF47A7304460F
:10896C0008460021C4E90113044B23600123207441
:10897C0063741146FFF7CCF9204610BDC8AA0B0052
:10898C00007C0022FFF7CCB910B51422044600215C
:10899C0001F0C0FB204610BD10B50F4C88B003A8E9
:1089AC00FFF7F2FF2178BFF35B8F11F001010FD1BC
:1089BC0020460191FBF76DFB019948B103AA0748CA
:1089CC00FFF7CAFF2046FBF769FB054801F076FB71
:1089DC00024808B010BD00BF00E7032004E70320E5
:1089EC00ED880B00004700002DE9FF4100241D46D7
:1089FC000F4690460646FEF7F3FFA5424FF00403E0
:108A0C00ADF80D408DF80C308DF80F40A2BF9DF8DD
:108A1C0028308DF80E3003AC0749009443463A4693
:108A2C003046A8BF8DF80D50FEF7D2FFB0FA80F09B
:108A3C00400904B0BDE8F081F1890B00FEF7E0BFFE
:108A4C00FEF7D6BF70474174704708B5007CFFF73E
:108A5C0077F820EAE07008BD08B5007CFFF748F80D
:108A6C0020EAE07008BD08B5007CFFF751F840EA39
:108A7C00E07008BD08B5007CFFF742F840EAE070F2
:108A8C0008BD007CFFF74CB837B5457C04462DB1CA
:108A9C00207C03B0BDE83040FFF722B8007C019188
:108AAC00FFF74EF800280199F2DC284603B030BDE0
:108ABC0010B514210446FBF7EAFA204610BD00005D
:108ACC0010B54FF47A730446084611460022C4E9E7
:108ADC000123044B2360012320746374FFF738F8DF
:108AEC00204610BDF8AA0B007047F8B5064615468F
:108AFC000C468F18BC4206D0336814F8011B9B68D7
:108B0C0030469847F6E72846F8BD007C0022FFF770
:108B1C003FB8007C0021FFF743B8007C0021FFF731
:108B2C0047B8007C0021FFF74BB8007C0021FFF711
:108B3C004FB810B514210446FBF7A9FA204610BD16
:108B4C0010B54FF47A73044608460021C4E90113AA
:108B5C00034B236020741146FFF74AF8204610BDE2
:108B6C0028AB0B000023007C1A461946FEF7F8BF11
:108B7C007FB500221423CDE90122ADF804300B7827
:108B8C008DF808304B680393CB680493007C0B7A08
:108B9C00059301A9FFF734F807B05DF804FB1FB586
:108BAC00003B8DF800104FF06401039118BF0123B6
:108BBC00694601928DF80830FFF7DAFF05B05DF8D1
:108BCC0004FB0123FFF7EBBF007C0022FEF7D0BFB4
:108BDC00C9B2FFF7F9BF007C0022FEF7D1BF01211B
:108BEC00FFF7F9BF13B503688DF80710DC6B012292
:108BFC004FF0FF330DF10701A04702B010BD10B4C8
:108C0C000368DC6B4FF0FF33A4465DF8044B604700
:108C1C0013B5134602688DF80710D46B0DF10701DC
:108C2C000122A04702B010BD10B54369B3F88620ED
:108C3C00B3F884309A42044608D06369B3F88420B0
:108C4C00511CA3F884101344187910BD03681B69D8
:108C5C0098470028F1D14FF0FF30F6E77047436991
:108C6C001868C043C00F704770470000064B99420C
:108C7C0010B500F10C0405D0084600F0C7FC002824
:108C8C0008BF0024204610BD84AA0B0010B5AC21EF
:108C9C000446FBF7FCF9204610BDAC21FBF7F7B9F5
:108CAC002DE9F0414FF0000886B01C46C0F8048056
:108CBC0005460E4617464146102202A801F02AFA34
:108CCC00631C09D04FF47A73B4FBF3F203FB124428
:108CDC00CDE902285C430494686910230093006872
:108CEC0002AB41F2050240F6FF71FEF791FF00283E
:108CFC0007DAFFF719F903686B60002006B0BDE8CE
:108D0C00F0816869002300683A463146FEF7A0FFFF
:108D1C00031EEEDB1846F1E730B587B0044601AD13
:108D2C006846FFF7CBFD0FCD04340FC42B682370BE
:108D3C0007B030BD70B54D69054B04468C3544F811
:108D4C00043B06460FCD0FC42B682370304670BD14
:108D5C00B4AA0B002DE9F0439846036893B00D4676
:108D6C000024DB6A06461746984728466B4622467F
:108D7C0021460094FEF7F4FD0546002863D1009BC4
:108D8C00002B4BD05B69002B48D006A8FFF746FDA3
:108D9C00009B5C696378022B04D1211D06A8FFF7A8
:108DAC00BBFF26E00A2B24D11122294601A801F091
:108DBC00B1F9A368002B38D004F108030DF1040CB1
:108DCC00183418685968624603C20833A3429446A3
:108DDC00F7D1062301A90CA88DF81430FFF72CFD50
:108DEC000DF1340CBCE80F0007AC0FC4DCF80030FC
:108DFC00237006A8FFF732FD80B1336807ADD3F8B6
:108E0C002090124B0C930FCD0DAC0FC42B6823701C
:108E1C003A4643460CA93046C84705460098FEF72B
:108E2C0097FD284613B0BDE8F083E368002BC3D14F
:108E3C004FF6FF70D4F81090FEF742FE8145BBD17F
:108E4C0004F11401AAE72546E8E700BFB4AA0B0019
:108E5C0038B543691A68002A054610DAB3F886203B
:108E6C00B3F884309A420AD103681B6998470446C8
:108E7C0028B92B682846DB6A9847204638BD012064
:108E8C00FCE710B54369B3F88620B3F884309A42F6
:108E9C00044605D06369B3F884201344187910BDD7
:108EAC0003681B6998470028F4D14FF0FF30F6E7B0
:108EBC00F8B543691746B3F88620B3F884309A4264
:108ECC0005460E4616D06969B1F88430B1F8864073
:108EDC00E41ABC4228BF3C460433224619443046AF
:108EEC0001F00AF96A69B2F884302344A2F884309C
:108EFC002046F8BD03681B6998470028E3D14FF062
:108F0C00FF34F5E742690023A2F884304269A2F8E5
:108F1C00863070472DE9F0411F4603680C46DB6A2A
:108F2C008AB0054616469847237DD5F81480042B45
:108F3C000CBF02200A2006220121FEF791FEC8F880
:108F4C0000006B691B68002B08DA2B682846DB6A6B
:108F5C000024984720460AB0BDE8F0812846FFF768
:108F6C00D1FFB7B1002303A9F8B20393ADF81030C9
:108F7C00FEF766FD0028E8D16869062300930068B7
:108F8C0003AB41F20B0240F6FF71FEF741FE0028E5
:108F9C00DBD11C22002103A801F0BCF8237D042B9B
:108FAC001DD14FF407733046ADF80C30FEF790FD31
:108FBC00ADF80E006068FEF783FD04906B691C220F
:108FCC00186803A9FEF734FE0028BED104340FCC78
:108FDC006D698C350FC523682B700124BAE740F6F8
:108FEC001C233046ADF80C30FEF772FD05AEADF823
:108FFC000E00231D04F1140718685968324603C289
:10900C000833BB421646F7D1D8E7000030B54269A9
:10901C00B2F886308BB004462BB1B2F884209A4259
:10902C0001D1FFF76FFF61690868002818DBB1F800
:10903C0086507F2D14D804310823C5F180022944B1
:10904C00FEF7FEFD002813DD6369B3F886200AB92C
:10905C00A3F884206369B3F886201044A3F8860033
:10906C006369B3F88600B3F88430C01A0BB030BD16
:10907C00FEF75AFF03680B2BF2D0FEF755FF03687F
:10908C000B2BEDD020230025CDE90235FEF74CFF4C
:10909C0003680193084B0949009302AA2B4632201E
:1090AC00FEF776FE63691868FEF7BAFD63694FF048
:1090BC00FF321A60D4E700BF4FAB0B0048AB0B007C
:1090CC0010B5436904461868002801DBFEF7A8FDBB
:1090DC0063694FF0FF321A606069112200218C30F5
:1090EC0001F018F82046BDE81040FFF70BBF10B593
:1090FC00002304460160C0F884308830FFF78EFBF3
:10910C00204610BD73B500234FF47A72C0E90132CA
:10911C000E4A0361026043610446AC200191FAF7E8
:10912C00B2FF051E05F10C0608D00123C5E9013379
:10913C00074B01992B603046FFF7D9FF2046C4E955
:10914C000565FFF7DFFE02B070BD00BF84AB0B00FE
:10915C0068AB0B0010B54FF0FF310446FFF7D2FFA0
:10916C00204610BD10B504460068002801DBFEF750
:10917C0057FD204610BD0C30FFF7F4BF00224068AD
:10918C001146FEF751BE002240681146FEF76CBE38
:10919C00002240681146FEF777BE40680022FEF7B9
:1091AC006BBE4068002281F00101FEF755BE002322
:1091BC0040681A461946FEF747BE002340681A4617
:1091CC001946FEF739BE002240681146FEF71CBE58
:1091DC00406800220221FEF71FBE002340681A4699
:1091EC00FEF70ABE024B04225A60024A1A6070470C
:1091FC0018E70320D0AB0B00002340681A46FEF79B
:10920C00FBBD406800220221FEF706BE002240682A
:10921C001146FEF7F9BD002240681146FEF704BE68
:10922C00002340681A461946FEF706BE0023406824
:10923C001A461946FEF708BE40680021FEF72CBE00
:10924C0040680021FEF730BE4068002281F0010129
:10925C00FEF702BE40680022FEF70EBE00224068F8
:10926C001146FEF711BE002240681146FEF7FCBD08
:10927C002DE9F04395B014460D460746FFF7CEFA9C
:10928C0000211C220DA8009100F044FF40230C93F8
:10929C0020466B460CAA0021FEF762FB0446002810
:1092AC004BD1024601216868FEF7BEFD02218046C3
:1092BC0022466868FEF7B8FD009E81462146002EC6
:1092CC003BD0002939D17368022B03D00A2B11D063
:1092DC00F669F4E7B8F1000FFAD0716906A8043109
:1092EC0007ADFFF7EBFA0FCD3C1D0FC42B682370B5
:1092FC004146EDE7B9F1000FEAD07469102201A8DC
:10930C0000F008FF06238DF8143001AD04F10803BA
:10931C001834186859682A4603C20833A342154604
:10932C00F7D101A906A807ADFFF786FA0FCD3C1DB2
:10933C000FC42B6823704946CAE70098FEF708FB58
:10934C00384615B0BDE8F083024B034A1A60002280
:10935C005A60704720E703200CAC0B00232813B590
:10936C0002D9002002B010BDA0F10B03022B1AD8B9
:10937C00174C2178BFF35B8F11F001010BD1204604
:10938C000191FAF786FE019928B11248FEF728FEE2
:10939C002046FAF783FE0F4B1878FEF781FC002865
:1093AC00DFD10120DEE7012809D800F009F90021FE
:1093BC00007CFEF715FC80F00100C0B2D2E7093842
:1093CC000128EED800F0C0F8007CFEF7B1FBF2E704
:1093DC0028E003202CE00320232838B504460D4652
:1093EC000AD8FF2908D0FFF7B9FF28B12946204633
:1093FC00BDE83840FEF7CCBA38BD38B504460D464A
:10940C00FEF7CEFAFF2810D0062804D84D2323FAF5
:10941C0000F0C30709D42046FFF7A0FF28B1294666
:10942C002046BDE83840FEF7C3BA38BD10B5044637
:10943C00FEF7B6FA031FDBB2012B08D92046FFF763
:10944C008DFF20B12046BDE81040FEF7B9BA0020D0
:10945C0010BD0D2810B504469CBF0E34A4B2204696
:10946C00FFF77CFF50B103212046FEF789FA032851
:10947C0004D12046BDE81040FEF7D2BA002010BD42
:10948C0038B504460D46FFF769FFF0B104212046BC
:10949C00FEF776FA042805D1A9B22046BDE838407B
:1094AC00FEF7B6BA02212046FEF76AFA02280CD162
:1094BC002046FEF775FA012801D0042805D129466B
:1094CC002046BDE83840FEF7B3BA38BD2DE9F0416F
:1094DC0090461F46072406460D46C4F10701B8F115
:1094EC00000F12D147FA01F101F001013046FFF7EC
:1094FC0084FF01212846FFF780FF00212846FFF753
:10950C007CFF013CE9D2BDE8F08147FA04F1EBE7BE
:10951C007047000038B5044614252A46002100F097
:10952C00F9FD25804025074925812846258200F034
:10953C006BF804496060284600F066F8E06020464D
:10954C0038BD00BF40AC0B0030B50E4D2978BFF3D1
:10955C005B8F11F0010487B011D12846FAF799FD01
:10956C0068B101A8FFF7D6FF01AA21460648FFF70C
:10957C00A7FA2846FAF792FD044800F09FFD02482E
:10958C0007B030BD28E703202CE703201D950B0006
:10959C007047000038B5202514230446036085600D
:1095AC0005610649284600F02FF8044960602846FA
:1095BC0000F02AF8E060204638BD00BF40AC0B003C
:1095CC0030B50E4D2978BFF35B8F11F0010487B0D5
:1095DC0011D12846FAF75DFD68B101A8FFF7DAFF53
:1095EC0001AA21460648FFF7ABFA2846FAF756FDC2
:1095FC00044800F063FD024807B030BD44E7032087
:10960C0048E703209D950B00FAF73FBD014900F098
:10961C00F9B800BF5CAC0B007FB500241023CDE97A
:10962C000234036815469E6912686B46CDE9004406
:10963C00B0479DF8043003F00603062B03BF009BD4
:10964C002B600120204604B070BD0098904214BFDE
:10965C00012006207047000010B5034B0360044640
:10966C0000F0CDF8204610BD9CAC0B0010B50446A4
:10967C00FFF7F2FF20460821FAF709FD204610BD3E
:10968C002DE9F0411F46DDE90834DDF818809845D6
:10969C000646154607D1079900F0B4F818B1657164
:1096AC000020BDE8F0813946304600F0ABF80028C8
:1096BC00F6D00123C4F800802571A371F0E738B50A
:1096CC0015461C4600F09EF820B10823E3600623E3
:1096DC002560237138BD73B505460C4601921E46B4
:1096EC0000F090F850B9032E08D82368019A5B69F2
:1096FC002946204602B0BDE87040184702B070BD44
:10970C0010B5034B03600446FFF7A6FF204610BDBF
:10971C00FCAC0B0010B50446FFF7F2FF20460C2101
:10972C00FAF7B5FC204610BDF7B5089F97420546E1
:10973C000E4614460AD0A86802680897156A314686
:10974C002246AC4603B0BDE8F04060471946019391
:10975C0000F058F8019B0028EDD0062003B0F0BDB6
:10976C002DE9F14F0D461946DDE90A4BDDE90CA652
:10977C0081461746984600F045F890B1002D3460AC
:10978C00377109DB61198A450CBF06210121B171C2
:10979C00002001B0BDE8F08F0235F9D10123B3717F
:1097AC00F6E7544506D15946484600F02BF808B167
:1097BC007771EDE7D9F808000368CDE90CA6CDE97F
:1097CC000A4BDC693A4643462946A44601B0BDE83B
:1097DC00F04F60472DE9F04107460C4615461E46F2
:1097EC00FFF76DFF48B9B86803689F692A4633468E
:1097FC002146BC46BDE8F0416047BDE8F0817047AA
:10980C0000207047814208B50ED0406803782A2B9F
:10981C000CD049680B782A2B08BF013100F0B0FC42
:10982C00B0FA80F0400908BD0120FCE70020FAE7FF
:10983C0081F0004102E000BF83F0004330B54FEAF5
:10984C0041044FEA430594EA050F08BF90EA020F62
:10985C001FBF54EA000C55EA020C7FEA645C7FEAF5
:10986C00655C00F0E2804FEA5454D4EB5555B8BF18
:10987C006D420CDD2C4480EA020281EA030382EA89
:10988C00000083EA010180EA020281EA0303362D1B
:10989C0088BF30BD11F0004F4FEA01314FF4801CEE
:1098AC004CEA113102D0404261EB410113F0004F00
:1098BC004FEA03334CEA133302D0524263EB4303B7
:1098CC0094EA050F00F0A780A4F10104D5F1200E55
:1098DC000DDB02FA0EFC22FA05F2801841F10001B0
:1098EC0003FA0EF2801843FA05F359410EE0A5F184
:1098FC0020050EF1200E012A03FA0EFC28BF4CF0B5
:10990C00020C43FA05F3C01851EBE37101F000456A
:10991C0007D54FF0000EDCF1000C7EEB00006EEB77
:10992C000101B1F5801F1BD3B1F5001F0CD3490801
:10993C005FEA30004FEA3C0C04F101044FEA445258
:10994C0012F5800F80F09A80BCF1004F08BF5FEADF
:10995C00500C50F1000041EB045141EA050130BDBF
:10996C005FEA4C0C404141EB0101013C28BFB1F5D1
:10997C00801FE9D291F0000F04BF01460020B1FA1C
:10998C0081F308BF2033A3F10B03B3F120020CDAEF
:10999C000C3208DD02F1140CC2F10C0201FA0CF0CD
:1099AC0021FA02F10CE002F11402D8BFC2F1200C32
:1099BC0001FA02F120FA0CFCDCBF41EA0C019040E8
:1099CC00E41AA2BF01EB0451294330BD6FEA040431
:1099DC001F3C1CDA0C340EDC04F11404C4F120021C
:1099EC0020FA04F001FA02F340EA030021FA04F32E
:1099FC0045EA030130BDC4F10C04C4F1200220FA85
:109A0C0002F001FA04F340EA0300294630BD21FAC2
:109A1C0004F0294630BD94F0000F83F4801306BF88
:109A2C0081F480110134013D4EE77FEA645C18BF7C
:109A3C007FEA655C29D094EA050F08BF90EA020F13
:109A4C0005D054EA000C04BF1946104630BD91EA0B
:109A5C00030F1EBF0021002030BD5FEA545C05D10E
:109A6C004000494128BF41F0004130BD14F580044D
:109A7C003CBF01F5801130BD01F0004545F0FE41C1
:109A8C0041F470014FF0000030BD7FEA645C1ABFF6
:109A9C00194610467FEA655C1CBF0B46024650EA2D
:109AAC00013406BF52EA033591EA030F41F4002159
:109ABC0030BD00BF90F0000F04BF0021704730B5DF
:109ACC004FF4806404F132044FF000054FF00001B4
